:100000000EEF00F00000000000EF00F00000000024
:0A0010000000000000000000F3D71C
:10001C00156A166A0F0EC16EFF0E936E956A838475
:10002C0081B003D083B001D009D081B402D0D88084
:10003C0001D0D89003E3010E006E01D0006A00B02D
:10004C0002D0839001D0838081B203D083B201D0DF
:10005C0009D081B402D0D88001D0D89003E3010E2E
:10006C00006E01D0006A00B002D0839201D083826E
:10007C0083B004D083B202D0006A02D0010E006EAD
:10008C0000C015F0000E166E81A418D0000E1618C4
:10009C0002E1010E151812E183708372060E0B6ECD
:1000AC00130E0C6EAD0E0D6E0D2EFED70C2EFCD756
:1000BC000B2EFAD70000000083908392B1D7FFD7A4
:020000040030CA
:0D000100021F1EFF8381FF0FC00FE00F40A4
:00000001FF
