:100000000BEF02F00000000000EF00F00000000025
:0A0010000000000000000000F3D71C
:0A001C00809A80948490849412006E
:1000260009D0808A21D080841FD084801DD084840A
:100036001BD032D0000E0001781902E1010E7719AB
:10004600F0E0000E781902E1020E7719ECE0000EDE
:10005600781902E1030E7719E8E0000E781902E13B
:10006600040E7719E4E0E5D779C000F07AC001F014
:10007600003600900136150E0024E96E000E0120B0
:10008600EA6EEECF83FF070E0C6E7D0E0D6E0D2E03
:0A009600FED70C2EFCD7BFDF1200CE
:1000A0000001756B766B800E7419006E800E7619E8
:1000B000005C02E17551735D41E3010E776F000E44
:1000C000786F71C0E9FF72C0EAFFEECF79F0EECF32
:1000D0007AF0A9DF020E0001776F000E786F020E32
:1000E0007125E96E000E7221EA6EEECF79F0EECF47
:1000F0007AF099DF030E0001776F000E786F040E1F
:100100007125E96E000E7221EA6EEECF79F0EECF26
:100110007AF089DF040E0001776F000E786F060E0B
:100120007125E96E000E7221EA6EEECF79F0EECF06
:0E0130007AF079DF0001754B762BB5D71200FF
:10013E0000016F6B706B800E7019006E800E005C8C
:10014E0002E1080E6F5DD8B045D1070E6F5D036EEC
:10015E00000E7059046E03C000F004C001F00036AA
:10016E00009001365B5000265C5001225BC0E1FF1F
:10017E005CC0E2FF00C0E9FF01C0EAFFEECFE6FF80
:10018E00EECFE6FF020E5B24E16E000E5C20E26E07
:10019E00060E6F5D036E000E7059046E03C000F004
:1001AE0004C001F000360090013600505B24E96E69
:1001BE0001505C20EA6EEECFE6FFEECFE6FF040EB6
:1001CE005B24E16E000E5C20E26E050E6F5D036E29
:1001DE00000E7059046E03C000F004C001F000362A
:1001EE000090013600505B24E96E01505C20EA6EEF
:1001FE00EECFE6FFEECFE6FF060E5B24E16E000EBD
:10020E005C20E26E040E6F5D036E000E7059046E7C
:10021E0003C000F004C001F000360090013600501B
:10022E005B24E96E01505C20EA6EEECFE6FFEECF66
:10023E00E6FF080E5B24E16E000E5C20E26E030EFC
:10024E006F5D036E000E7059046E03C000F004C0A3
:10025E0001F000360090013600505B24E96E01502B
:10026E005C20EA6EEECFE6FFEECFE6FF0A0E5B24D1
:10027E00E16E000E5C20E26E020E6F5D036E000EEC
:10028E007059046E03C000F004C001F000360090F7
:10029E00013600505B24E96E01505C20EA6EEECF11
:1002AE00E6FFEECFE6FF0C0E5B24E16E000E5C2047
:1002BE00E26E010E6F5D036E000E7059046E03C088
:1002CE0000F004C001F000360090013600505B24AF
:1002DE00E96E01505C20EA6EEECFE6FFEECFE6FF50
:1002EE000E0E5B24E16E000E5C20E26E6FC000F01D
:1002FE0070C001F000360090013600505B24E96EAC
:10030E0001505C20EA6EEECFE6FFEECFE6FF5BC05B
:10031E00E9FF5CC0EAFFEECF5FF0EECF60F0020EB9
:10032E005B24E96E000E5C20EA6EEECF61F0EECF3C
:10033E0062F0040E5B24E96E000E5C20EA6EEECFD6
:10034E0063F0EECF64F0060E5B24E96E000E5C20C7
:10035E00EA6EEECF65F0EECF66F0080E5B24E96E26
:10036E00000E5C20EA6EEECF67F0EECF68F00A0E5C
:10037E005B24E96E000E5C20EA6EEECF69F0EECFE4
:10038E006AF00C0E5B24E96E000E5C20EA6EEECF76
:10039E006BF0EECF6CF00E0E5B24E96E000E5C205F
:1003AE00EA6EEECF6DF0EECF6EF05F0E716F000E57
:1003BE00726F5DC073F05EC074F06BDE670E716FAE
:1003CE00000E726F5DC073F05EC074F062DE6F4B34
:0603DE00702BB1D61200E5
:1003E4000900F5CFE6FF0006FBE10106F9E1120082
:1003F400808A808484808484839083928394839687
:100404008398839A839C839E809A80948490849416
:020414001200D4
:1004160052EC02F0940EF66E040EF76E000EF86EB5
:100426004B0EE16E000EE26E100E006E010E016EB6
:10043600D6DF0F0EC16E956A929A92949694969014
:10044600D6DF4B0E5B6E000E5C6E2C0E5D6E010EE3
:080456005E6E72DEF6D7FFD7DF
:1004A40010EE15F0360E006E010E016E5E0EF66E45
:0E04B400040EF76E000EF86EF2EC01F012006E
:10045E0077007F0039005E00790071007D00760024
:10046E0006001E008000380080005400BF0073009C
:10047E00670031006D0078003E00BE008000F6007F
:06048E0072005B0000009B
:100494001200040017001A00120007000E000F00DB
:020000040030CA
:0E000000000C1F1EFF8381FF0FC00FE00F409A
:00000001FF
